S00D000066696E616C2E737265630D
S11300000C9472000C9494000C9494000C9494003E
S11300100C9494000C9494000C9494000C9494000C
S11300200C9494000C9494000C9494000C949400FC
S11300300C9494000C9494000C9494000C949400EC
S11300400C9494000C9494000C9494000C949400DC
S11300500C9494000C9494000C9494000C949400CC
S11300600C9494000C9417010C9494000C94940038
S11300700C9494000C9494000C9494000C949400AC
S11300800C9494000C9494000C9494000C9494009C
S11300900C9494000C9494000C9494000C9494008C
S11300A00C9494000C9494000C9494000C9494007C
S11300B00C9494000C9494000C9494000C9494006C
S11300C00C9494000C9494000C9485010C9494006A
S11300D00C9494000C9494000C9494000C9494004C
S11300E00C94940011241FBECFEFD1E2DEBFCDBF2C
S11300F000E00CBF12E0A0E0B2E0ECE2F6E000E0C9
S11301000BBF02C007900D92A030B107D9F71BBEF8
S113011012E0A0E0B2E001C01D92A130B107E1F706
S11301200E948F010C9414030C9400003B9A439892
S1130130089581B18F6081B982B1807F82B9EAE08C
S1130140F1E0808188618083EBE0F1E08081877E4B
S113015080830895259A2D9A08950E9499000E94FB
S113016096000895E0E8F0E010828FEF93E090931A
S113017087008093860021E03CEF30938500209334
S1130180840090938900809388008BEA80838CE0BC
S113019080938100089581EA80932001E1E2F1E0F7
S11301A088E080838FEF90E090932B0180932A0165
S11301B08AEF90E0909329018093280181E0809355
S11301C0730082E080830895682F70E080E090E0FF
S11301D00E9423022FE632E143E05FE30E94B10272
S11301E021E73DE34AE052E40E9493010E94F701B3
S11301F0DC01CB019093890080938800089586B137
S1130200886088B9089586B1877F88B90895E1EC3C
S1130210F0E010821092C00086E08093C2008FE567
S11302208093C4001092C50088E9808308951F92CA
S11302300F920FB60F920BB60F9211242F933F9388
S11302404F935F936F937F938F939F93AF93BF93DA
S1130250EF93FF93E6ECF0E08081809300028083CB
S1130260813319F484EB0E94E4008091000280330E
S113027019F480E00E94E40080910002883311F4B4
S113028086E082B980910002823311F489E082B958
S113029080910002843311F485E082B980910002D8
S11302A0863311F48AE082B980910002853309F41F
S11302B012B880910002873311F40E94FF008091EC
S11302C00002893311F40E940301FF91EF91BF9161
S11302D0AF919F918F917F916F915F914F913F91DA
S11302E02F910F900BBE0F900FBE0F901F9018957B
S11302F0F8940E94AD000E9407010E94AA000E9487
S1130300B2000E94CB00789408951F920F920FB60A
S11303100F9211240F900FBE0F901F9018950E94FA
S11303207801FFCF5058BB27AA270ED0E0C0D1D008
S113033030F0D6D020F031F49F3F11F41EF4C6C043
S11303400EF4E095E7FBBCC0E92FE2D080F3BA17C6
S1130350620773078407950718F071F49EF5FAC0D5
S11303600EF4E0950B2EBA2FA02D0B01B9019001CC
S11303700C01CA01A0011124FF27591B99F0593F10
S113038050F4503E68F11A16F040A22F232F342F58
S11303904427585FF3CF469537952795A795F040A6
S11303A05395C9F77EF41F16BA0B620B730B840BBB
S11303B0BAF09150A1F0FF0FBB1F661F771F881F73
S11303C0C2F70EC0BA0F621F731F841F48F48795CB
S11303D077956795B795F7959E3F08F0B3CF9395BA
S11303E0880F08F09927EE0F97958795089598D070
S11303F088F09F5790F0B92F9927B751A0F0D1F00A
S1130400660F771F881F991F1AF0BA95C9F712C093
S1130410B13081F09FD0B1E008959CC0672F782F50
S11304208827B85F39F0B93FCCF3869577956795FF
S1130430B395D9F73EF490958095709561957F4F6B
S11304408F4F9F4F0895E89409C097FB3EF4909511
S11304508095709561957F4F8F4F9F4F9923A9F099
S1130460F92F96E9BB279395F69587957795679528
S1130470B795F111F8CFFAF4BB0F11F460FF1BC06C
S11304806F5F7F4F8F4F9F4F16C0882311F096E9FF
S113049011C0772321F09EE8872F762F05C06623AD
S11304A071F096E8862F70E060E02AF09A95660F66
S11304B0771F881FDAF7880F9695879597F908951F
S11304C097F99F6780E870E060E008959FEF80EC03
S11304D0089500240A9416161706180609060895A6
S11304E000240A9412161306140605060895092E0C
S11304F00394000C11F4882352F0BB0F40F4BF2B7B
S113050011F460FF04C06F5F7F4F8F4F9F4F0895BA
S113051057FD9058440F551F59F05F3F71F04795B0
S1130520880F97FB991F61F09F3F79F08795089595
S1130530121613061406551FF2CF4695F1DF08C0B4
S1130540161617061806991FF1CF869571056105D1
S113055008940895E894BB2766277727CB0197F979
S113056008950BD0C4CFB5DF28F0BADF18F0952377
S113057009F0A6CFABCF1124EECFCADFA0F3959F2D
S1130580D1F3950F50E0551F629FF001729FBB2776
S1130590F00DB11D639FAA27F00DB11DAA1F649F22
S11305A06627B00DA11D661F829F2227B00DA11DD5
S11305B0621F739FB00DA11D621F839FA00D611D5B
S11305C0221F749F3327A00D611D231F849F600D7C
S11305D0211D822F762F6A2F11249F5750408AF0B5
S11305E0E1F088234AF0EE0FFF1FBB1F661F771F41
S11305F0881F91505040A9F79E3F510570F060CF7D
S1130600AACF5F3FECF3983EDCF386957795679528
S1130610B795F795E7959F5FC1F7FE2B880F911D5E
S10F06209695879597F90895F894FFCFFC
S9030000FC
